:100000000C9434000C940B020C940B020C940B0215
:100010000C940B020C940B020C940B020C940B022C
:100020000C940B020C940B020C940B020C940B021C
:100030000C940B020C940B020C940B020C940B020C
:100040000C940B020C940B020C940B020C940B02FC
:100050000C940B025F016201650168016B016E0186
:100060007101740177017A0111241FBECFE5D8E038
:10007000DEBFCDBF0E9440000C94E501F894FFCF95
:100080008AB38E7F8ABB8FEF87BB0E940D020E94CE
:10009000CC010E94F601A12CB12CE12CF12C0CE337
:1000A00010E09A9B07C09A99FECFC12CD12CEE2468
:1000B000E394F12C91E0C114D10409F090E081E0C7
:1000C00021E0E216F10409F080E0892309F5E9CF87
:1000D00080E090E00E947D0199230CF401969C0140
:1000E000359527954CE4429FC001439F900D112404
:1000F00064E570E00E94950161507109A60EB71E7B
:1001000089E698E10197F1F700C00000219602C04E
:10011000C0E0D0E0CA30D105DCF2C5016AE070E091
:100120000E949501862F972FA62EB72E0E940D01B3
:1001300093B383B391708270892B41F1989B05C072
:100140009899FECF0B5F1F4F06C0999B04C09999E9
:10015000FECF05501109902E812EC80183978997F3
:1001600080F014C0892D982D0E940D019FE32DE091
:1001700083E0915020408040E1F700C000002196CC
:1001800002C0C0E0D0E0C530D10564F3C8010597D6
:10019000A816B9068CF488B3816088BB88B38B7FBE
:1001A00088BB98B382E0892788BB89E698E10197EC
:1001B000F1F700C0000015C00A151B0521F488B333
:1001C0008D7F88BB0EC0C80105968A159B054CF42F
:1001D00088B38E7F88BB88B3846088BB88B3826015
:1001E00088BB9A9B5ECF9A99FECF11BAC8016AE08C
:1001F00070E00E949501C82F605D80E090E00E9451
:10020000D90160E36C0F81E090E00E94D901CC2419
:0A021000C394D12CE12CF12C44CF53
:10021A00CF93DF93AC019C01ADECBCEC0E94BD0115
:10022A00EC01D695C795D695C795D695C795CE01B3
:10023A00880F991FCC0FDD1FCC0FDD1FCC0FDD1FE0
:10024A00C80FD91FCA018C1B9D0BEC010E94BD016E
:10025A009695879596958795969587950E945701C5
:10026A000E94FB010E94070283EC99E00197F1F7D3
:10027A0000C000000E94FF010E940702CE010E94F6
:10028A0057010E9403020E94FF0183EC99E0019743
:10029A00F1F700C000000E9407020E94FF01DF91EF
:0402AA00CF91089553
:1002AE008A30910510F5FC01E65DFF4F0C94F001CC
:1002BE008FE382BB089586E082BB08958BED82BBEF
:1002CE0008958FEC82BB089586E682BB08958DE675
:1002DE0082BB08958DE782BB089587E082BB0895A7
:0C02EE008FE782BB089587E682BB08956D
:1002FA0097B1907F97B997B1892B87B986B18064F6
:10030A0086B986B183EC99E00197F1F700C0000045
:10031A0024B185B190E0982F8827820F911D089506
:10032A0097FB072E16F4009407D077FD09D00E9498
:10033A00A90107FC05D03EF4909581959F4F089539
:08034A00709561957F4F089545
:10035200AA1BBB1B51E107C0AA1FBB1FA617B707E9
:1003620010F0A61BB70B881F991F5A95A9F7809505
:080372009095BC01CD01089536
:10037A00A29FB001B39FC001A39F700D811D1124DC
:0E038A00911DB29F700D811D1124911D0895CB
:1003980087B1806487B986B1806886B986B1806480
:0A03A80086B986B1876086B9089512
:1003B200E199FECF9FBB8EBB6DBB8CB384608CBBBF
:0803C2008CB381608CBB08952F
:1003CA00EC010E9412020E941102CE010E94130245
:0603DA00CE010E940F029B
:0C03E000EE0FFF1F0590F491E02D099432
:0A03EC008FE081BB8FEF87BB0895FF
:0803F60088B38F7B88BB0895DA
:0803FE0088B3806488BB0895F8
:0804060088B38F7788BB0895CD
:08040E0088B3806888BB0895E3
:040416000C94000042
:04041A0014BA089573
:04041E000E943E00FA
:0204220008953B
:02042400089539
:02042600089537
:00000001FF
