:100000000C9434000C9407020C9407020C94070221
:100010000C9407020C9407020C9407020C9407023C
:100020000C9407020C9407020C9407020C9407022C
:100030000C9407020C9407020C9407020C9407021C
:100040000C9407020C9407020C9407020C9407020C
:100050000C9407025B015E016101640167016A01A2
:100060006D0170017301760111241FBECFE5D8E048
:10007000DEBFCDBF0E9440000C94E101F894FFCF99
:100080008AB38E7F8ABB8FEF87BB0E9409020E94D2
:10009000C8010E94F201A12CB12CE12CF12C0CE33F
:1000A00010E09A9B07C09A99FECFC12CD12CEE2468
:1000B000E394F12C91E0C114D10409F090E081E0C7
:1000C00021E0E216F10409F080E0892309F5E9CF87
:1000D00080E090E00E94790199230CF401969C0144
:1000E000359527954CE4429FC001439F900D112404
:1000F00064E570E00E94910161507109A60EB71E7F
:1001000089E698E10197F1F700C00000219602C04E
:10011000C0E0D0E0CA30D105DCF2C5016AE070E091
:100120000E949101862F972FA62EB72E0E940901BB
:1001300093B383B391708270892B29F1989B05C08A
:100140009899FECF0B5F1F4F06C0999B04C09999E9
:10015000FECF05501109902E812EC80183978997F3
:1001600068F011C0892D982D0E94090189E698E157
:100170000197F1F700C00000219602C0C0E0D0E076
:10018000C530D1057CF3A016B10674F488B3816044
:1001900088BB98B382E0892788BB89E698E10197FC
:1001A000F1F700C0000019C00A151B0551F488B30F
:1001B0008E7F88BB88B38D7F88BB88B38B7F88BBDD
:1001C0000CC00A151B054CF488B38E7F88BB88B31E
:1001D000846088BB88B3826088BB9A9B62CF9A99FF
:1001E000FECF11BAC8016AE070E00E949101C82FE9
:1001F000605D80E090E00E94D50160E36C0F81E0DB
:1002000090E00E94D501CC24C394D12CE12CF12C98
:0202100048CFD5
:10021200CF93DF93AC019C01ADECBCEC0E94B90121
:10022200EC01D695C795D695C795D695C795CE01BB
:10023200880F991FCC0FDD1FCC0FDD1FCC0FDD1FE8
:10024200C80FD91FCA018C1B9D0BEC010E94B9017A
:100252009695879596958795969587950E945301D1
:100262000E94F7010E94030283EC99E00197F1F7E3
:1002720000C000000E94FB010E940302CE010E9406
:1002820053010E94FF010E94FB0183EC99E0019758
:10029200F1F700C000000E9403020E94FB01DF91FF
:0402A200CF9108955B
:1002A6008A30910510F5FC01E65DFF4F0C94EC01D8
:1002B6008FE382BB089586E082BB08958BED82BBF7
:1002C60008958FEC82BB089586E682BB08958DE67D
:1002D60082BB08958DE782BB089587E082BB0895AF
:0C02E6008FE782BB089587E682BB089575
:1002F20097B1907F97B997B1892B87B986B18064FE
:1003020086B986B183EC99E00197F1F700C000004D
:1003120024B185B190E0982F8827820F911D08950E
:1003220097FB072E16F4009407D077FD09D00E94A0
:10033200A50107FC05D03EF4909581959F4F089545
:08034200709561957F4F08954D
:10034A00AA1BBB1B51E107C0AA1FBB1FA617B707F1
:10035A0010F0A61BB70B881F991F5A95A9F780950D
:08036A009095BC01CD0108953E
:10037200A29FB001B39FC001A39F700D811D1124E4
:0E038200911DB29F700D811D1124911D0895D3
:1003900087B1806487B986B1806886B986B1806488
:0A03A00086B986B1876086B908951A
:1003AA00E199FECF9FBB8EBB6DBB8CB384608CBBC7
:0803BA008CB381608CBB089537
:1003C200EC010E940E020E940D02CE010E940F0259
:0603D200CE010E940B02A7
:0C03D800EE0FFF1F0590F491E02D09943A
:0A03E4008FE081BB8FEF87BB089507
:0803EE0088B38F7B88BB0895E2
:0803F60088B3806488BB089500
:0803FE0088B38F7788BB0895D6
:0804060088B3806888BB0895EB
:04040E000C9400004A
:0404120014BA08957B
:040416000E943E0002
:02041A00089543
:02041C00089541
:02041E0008953F
:00000001FF
