:100000000C9434000C940C020C940C020C940C0212
:100010000C940C020C940C020C940C020C940C0228
:100020000C940C020C940C020C940C020C940C0218
:100030000C940C020C940C020C940C020C940C0208
:100040000C940C020C940C020C940C020C940C02F8
:100050000C940C0260016301660169016C016F017F
:100060007201750178017B0111241FBECFE5D8E034
:10007000DEBFCDBF0E9440000C94E601F894FFCF94
:100080008AB38E7F8ABB8FEF87BB0E940E020E94CD
:10009000CD010E94F701A12CB12CE12CF12C0CE335
:1000A00010E09A9B07C09A99FECFC12CD12CEE2468
:1000B000E394F12C91E0C114D10409F090E081E0C7
:1000C00021E0E216F10409F080E0892309F5E9CF87
:1000D00080E090E00E947E0199230CF401969C013F
:1000E000359527954CE4429FC001439F900D112404
:1000F00064E570E00E94960161507109A60EB71E7A
:1001000089E698E10197F1F700C00000219602C04E
:10011000C0E0D0E0CA30D105DCF2C5016AE070E091
:100120000E949601862F972FA62EB72E0E940E01B1
:1001300093B383B391708270892B41F1989B05C072
:100140009899FECF0B5F1F4F06C0999B04C09999E9
:10015000FECF05501109902E812EC80183978997F3
:1001600080F014C0892D982D0E940E019FE32DE090
:1001700083E0915020408040E1F700C000002196CC
:1001800002C0C0E0D0E0C530D10564F3C8010597D6
:10019000A816B9068CF488B3816088BB88B38B7FBE
:1001A00088BB98B382E0892788BB89E698E10197EC
:1001B000F1F700C0000015C00A151B0521F488B333
:1001C0008D7F88BB0EC0C80105968A159B054CF42F
:1001D00088B38E7F88BB88B3846088BB88B3826015
:1001E00088BB9A9B5ECF9A99FECF11BA17BAC80105
:1001F0006AE070E00E949601C82F605D80E090E0A8
:100200000E94DA0160E36C0F81E090E00E94DA0165
:0C021000CC24C394D12CE12CF12C43CF62
:10021C00CF93DF93AC019C01ADECBCEC0E94BE0112
:10022C00EC01D695C795D695C795D695C795CE01B1
:10023C00880F991FCC0FDD1FCC0FDD1FCC0FDD1FDE
:10024C00C80FD91FCA018C1B9D0BEC010E94BE016B
:10025C009695879596958795969587950E945801C2
:10026C000E94FC010E94080283EC99E00197F1F7CF
:10027C0000C000000E9400020E940802CE010E94F1
:10028C0058010E9404020E94000283EC99E001973D
:10029C00F1F700C000000E9408020E940002DF91EA
:0402AC00CF91089551
:1002B0008A30910510F5FC01E65DFF4F0C94F101C9
:1002C0008FE382BB089586E082BB08958BED82BBED
:1002D00008958FEC82BB089586E682BB08958DE673
:1002E00082BB08958DE782BB089587E082BB0895A5
:0C02F0008FE782BB089587E682BB08956B
:1002FC0097B1907F97B997B1892B87B986B18064F4
:10030C0086B986B183EC99E00197F1F700C0000043
:10031C0024B185B190E0982F8827820F911D089504
:10032C0097FB072E16F4009407D077FD09D00E9496
:10033C00AA0107FC05D03EF4909581959F4F089536
:08034C00709561957F4F089543
:10035400AA1BBB1B51E107C0AA1FBB1FA617B707E7
:1003640010F0A61BB70B881F991F5A95A9F7809503
:080374009095BC01CD01089534
:10037C00A29FB001B39FC001A39F700D811D1124DA
:0E038C00911DB29F700D811D1124911D0895C9
:10039A0087B1806487B986B1806886B986B180647E
:0A03AA0086B986B1876086B9089510
:1003B400E199FECF9FBB8EBB6DBB8CB384608CBBBD
:0803C4008CB381608CBB08952D
:1003CC00EC010E9413020E941202CE010E94140240
:0603DC00CE010E94100298
:0C03E200EE0FFF1F0590F491E02D099430
:0A03EE008FE081BB8FEF87BB0895FD
:0803F80088B38F7B88BB0895D8
:0804000088B3806488BB0895F5
:0804080088B38F7788BB0895CB
:0804100088B3806888BB0895E1
:040418000C94000040
:04041C0014BA089571
:040420000E943E00F8
:02042400089539
:02042600089537
:02042800089535
:00000001FF
